:100000000C942A000C9434000C9434000C943400AA
:100010000C9434000C9434000C9434000C94340090
:100020000C9434000C9434000C9434000C94340080
:100030000C9434000C9434000C9434000C94340070
:100040000C9434000C9434000C9434000C94340060
:100050000C94340011241FBECFE5D8E0DEBFCDBF25
:100060000E9436000C9487050C9400000E94490001
:1000700042E060E070E080E491E40E944C002FEFE9
:1000800084E39CE0215080409040E1F700C00000F4
:10009000EFCF8FE084BB08952F923F924F925F92F3
:1000A0006F927F928F929F92AF92BF92CF92DF9288
:1000B000EF92FF920F931F93CF93DF9300D000D066
:1000C000CDB7DEB76B017C01498320E030E040E929
:1000D00052E40E94D90418160CF4B5C2A701960187
:1000E00060E070E080E491E40E94E00320E030E012
:1000F0004AE754E40E94DE042981213041F0223095
:1001000009F49FC0ACC16BEA7AEA86E293E421E08D
:1001100025BB0E945204F72F6983B62FE72FEE0FFD
:10012000EE0B262F372F4E2F5E2F6E2F7E2F8E2F0A
:100130009E2FA0E00E947B0509F498C2CF2EDE2EF0
:10014000EE2EFE2E0E2F1E2FEA838FEC97E00197E6
:10015000F1F700C0000029813C2D4D2D5E2D6F2D43
:10016000702F812F9A81AFEF0E946F052983C32ED4
:10017000D42EE52EF62E072F182F9A83A0E00E948A
:100180007B0519F768C28FEC97E00197F1F700C083
:1001900000002C2D3D2D4E2D5F2D602F712F8A815B
:1001A0009981AFEF0E946F05C22ED32EE42EF52E5B
:1001B000062F172F8A839983A0E00E947B0519F7E9
:1001C0005CC28FEC97E00197F1F700C000002C2D86
:1001D0003D2D4E2D5F2D602F712F8A819981AFEFBC
:1001E0000E946F05C22ED32EE42EF52E062F172F58
:1001F0008A839983A0E00E947B0519F749C28FEC9E
:1002000097E00197F1F700C000002B2F3F2F4F2DF3
:10021000502F612F7A8189819E2FAFEF0E946F0549
:10022000B22FF32FF42E052F162F7A838983E92F0F
:10023000A0E00E947B0519F7ACC26BEA7AEA86E27D
:1002400093E421E025BB0E945204F72F6983B62F67
:10025000E72FEE0FEE0B262F372F4E2F5E2F6E2F30
:100260007E2F8E2F9E2FA0E00E947B0509F423C2D3
:10027000CF2EDE2EEE2EFE2E0E2F1E2FEA838FECBB
:1002800097E00197F1F700C0000029813C2D4D2D2A
:100290005E2D6F2D702F812F9A81AFEF0E946F0519
:1002A0002983C32ED42EE52EF62E072F182F9A83DE
:1002B000A0E00E947B0519F7F3C18FEC97E001974E
:1002C000F1F700C000002C2D3D2D4E2D5F2D602F2D
:1002D000712F8A819981AFEF0E946F05C22ED32EB4
:1002E000E42EF52E062F172F8A839983A0E00E9413
:1002F0007B0519F7EFC18FEC97E00197F1F700C08C
:1003000000002C2D3D2D4E2D5F2D602F712F8A81E9
:100310009981AFEF0E946F05C22ED32EE42EF52EE9
:10032000062F172F8A839983A0E00E947B0519F777
:10033000DCC18FEC97E00197F1F700C000002C2D95
:100340003D2D4E2D5F2D602F712F8A819981AFEF4A
:100350000E946F05C22ED32EE42EF52E062F172FE6
:100360008A839983A0E00E947B0519F7C9C18FECAD
:1003700097E00197F1F700C000002C2D3D2D4E2D88
:100380005F2D602F712F8A819981AFEF0E946F05D9
:10039000C22ED32EE42EF52E062F172F8A83998393
:1003A000A0E00E947B0519F7B6C18FEC97E001979A
:1003B000F1F700C000002C2D3D2D4E2D5F2D602F3C
:1003C000712F8A819981AFEF0E946F05C22ED32EC3
:1003D000E42EF52E062F172F8A839983A0E00E9422
:1003E0007B0519F7A3C18FEC97E00197F1F700C0E7
:1003F00000002C2D3D2D4E2D5F2D602F712F8A81F9
:100400009981AFEF0E946F05C22ED32EE42EF52EF8
:10041000062F172F8A839983A0E00E947B0519F786
:1004200090C18FEC97E00197F1F700C000002B2FEF
:100430003F2F4F2D502F612F7A8189819E2FAFEF53
:100440000E946F05B22FF32FF42E052F162F7A83FB
:100450008983E92FA0E00E947B0519F79AC121E06A
:1004600025BB0E945204D72EC62EE72EEE0CEE08B6
:10047000262F372F4E2D5E2D6E2D7E2D8E2D9E2DEF
:10048000AFEF0E946F05E22FF32FB42F5B836C83D5
:10049000172F082FF92E2C2D3D2D4E2D5E2D6E2D54
:1004A0007E2D8E2D9E2DA0E00E947B0509F45CC15F
:1004B0009E2EAF2EBB2ECB807C80812ED02EEF2C9B
:1004C0008FEC97E00197F1F700C00000292D3A2D3D
:1004D0004B2D5C2D672D782D8D2D9E2DAFEF0E941D
:1004E0006F052983632E542E452E362E272E292D57
:1004F0003A2D4B2D5C2D672D782DDA82AE2D99800B
:10050000A62CB52CC42C732C822CD82EE92E8A81D3
:100510009A2FA0E00E947B0599F61BC18FEC97E013
:100520000197F1F700C00000292D3A2D4B2D5C2DCD
:10053000672D782D8D2D9E2DAFEF0E946F0529839D
:10054000632E542E452E362E272E292D3A2D4B2D37
:100550005C2D672D782DDA82AE2D9980A62CB52CD6
:10056000C42C732C822CD82EE92E8A819A2FA0E0DD
:100570000E947B0599F6FFC08FEC97E00197F1F799
:1005800000C00000292D3A2D4B2D5C2D672D782DB4
:100590008D2D9E2DAFEF0E946F052983632E542E63
:1005A000452E362E272E292D3A2D4B2D5C2D672DCD
:1005B000782DDA82AE2D9980A62CB52CC42C732C04
:1005C000822CD82EE92E8A819A2FA0E00E947B05EA
:1005D00099F6DCC08FEC97E00197F1F700C00000BE
:1005E0002E2F3F2F4B2F5B816C81712F802F9F2DE2
:1005F000AFEF0E946F05822E932EA42EB52EC62E2D
:10060000D72E2E2F3F2F4B2F5B816C81712FE02E29
:10061000AF2DE82DF92DBA2DBB82CC821D2D082FD0
:10062000F92E8E2D9A2FA0E00E947B0599F6B1C07D
:1006300081E085BBE5EAF0E0B0E01B821C8210E0BF
:1006400000E0F12C35CF9981913009F45CCD9230E6
:1006500009F4F3CDEDCF82E085BBCB2EDF2EEE2E5D
:10066000FE2E0E2F1E2FEA83E9838DCD82E085BBFF
:1006700084E085BB88E085BB8CC084E085BBCB2E45
:10068000DF2EEE2EFE2E0E2F1E2FEA83E98399CD4C
:1006900088E085BBFE2E0E2F1E2FEA83E983AFCDA7
:1006A00083E085BBCB2EDF2EEE2EFE2E0E2F1E2FCF
:1006B000EA83E98302CE83E085BB82E085BB86E0E6
:1006C00085BB84E085BB8CE085BB88E085BB89E089
:1006D00085BB5FC082E085BBCB2EDF2EEE2EFE2ECB
:1006E0000E2F1E2FEA83E98306CE86E085BBCB2E34
:1006F000DF2EEE2EFE2E0E2F1E2FEA83E98319CE5B
:1007000084E085BBCB2EDF2EEE2EFE2E0E2F1E2F6D
:10071000EA83E9832CCE8CE085BBCB2EDF2EEE2E38
:10072000FE2E0E2F1E2FEA83E9833FCE88E085BB85
:10073000CB2EDF2EEE2EFE2E0E2F1E2FEA83E98308
:1007400052CE89E085BBFE2E0E2F1E2FEA83E98351
:1007500068CE82E085BB9E2EAF2EBB2ECB807C80E8
:10076000812ED02EEF2CDACE82E085BB84E085BBD3
:1007700088E085BB0EC084E085BB9E2EAF2EBB2ECD
:10078000CB807C80812ED02EEF2CF6CE88E085BBEE
:1007900021CF0F900F900F900F90DF91CF911F916D
:1007A0000F91FF90EF90DF90CF90BF90AF909F9010
:1007B0008F907F906F905F904F903F902F90089513
:1007C0000E94F4030C949F040E94980458F00E9425
:1007D000910440F029F45F3F29F00C9488045111F2
:1007E0000C94D3040C948E040E94B00468F39923F3
:1007F000B1F3552391F3951B550BBB27AA2762171D
:100800007307840738F09F5F5F4F220F331F441F29
:10081000AA1FA9F335D00E2E3AF0E0E832D091505D
:100820005040E695001CCAF72BD0FE2F29D0660F4A
:10083000771F881FBB1F261737074807AB07B0E88D
:1008400009F0BB0B802DBF01FF2793585F4F3AF093
:100850009E3F510578F00C9488040C94D3045F3FBC
:10086000E4F3983ED4F3869577956795B795F79519
:100870009F5FC9F7880F911D9695879597F9089501
:10088000E1E0660F771F881FBB1F6217730784079D
:10089000BA0720F0621B730B840BBA0BEE1F88F7AC
:1008A000E09508950E9459046894B1110C94D30402
:1008B00008950E94B80488F09F5798F0B92F99279F
:1008C000B751B0F0E1F0660F771F881F991F1AF03B
:1008D000BA95C9F714C0B13091F00E94D204B1E0CA
:1008E00008950C94D204672F782F8827B85F39F0C9
:1008F000B93FCCF3869577956795B395D9F73EF4D4
:1009000090958095709561957F4F8F4F9F4F08957B
:1009100097F99F6780E870E060E008959FEF80ECB2
:10092000089500240A941616170618060906089555
:1009300000240A9412161306140605060895092EBB
:100940000394000C11F4882352F0BB0F40F4BF2B2A
:1009500011F460FF04C06F5F7F4F8F4F9F4F08956A
:1009600057FD9058440F551F59F05F3F71F0479560
:10097000880F97FB991F61F09F3F79F08795089545
:10098000121613061406551FF2CF4695F1DF08C064
:10099000161617061806991FF1CF86957105610581
:1009A00008940895E894BB2766277727CB0197F929
:1009B00008950E944B0508F48FEF08950E94F104FA
:1009C0000C949F040E94910438F00E94980420F037
:1009D000952311F00C9488040C948E0411240C942B
:1009E000D3040E94B00470F3959FC1F3950F50E0BB
:1009F000551F629FF001729FBB27F00DB11D639FD1
:100A0000AA27F00DB11DAA1F649F6627B00DA11D76
:100A1000661F829F2227B00DA11D621F739FB00D1C
:100A2000A11D621F839FA00D611D221F749F33278C
:100A3000A00D611D231F849F600D211D822F762F25
:100A40006A2F11249F5750409AF0F1F088234AF002
:100A5000EE0FFF1FBB1F661F771F881F915050406E
:100A6000A9F79E3F510580F00C9488040C94D304A0
:100A70005F3FE4F3983ED4F3869577956795B795F5
:100A8000F795E7959F5FC1F7FE2B880F911D96950F
:100A9000879597F90895990F0008550FAA0BE0E87C
:100AA000FEEF16161706E807F907C0F01216130630
:100AB000E407F50798F0621B730B840B950B39F470
:100AC0000A2661F0232B242B252B21F408950A26D6
:100AD00009F4A140A6958FEF811D811D0895002482
:100AE000A7FD00942A0F301D401D501D601D701D74
:100AF000801D901D08950024A7FD00942A1730053D
:100B00004005500560057005800590050895F8942E
:020B1000FFCF15
:00000001FF
